:020000040800F2
:10000000E8070020290200089D08000823050008D1
:1000100035060008D1020008FF16000800000000A5
:10002000000000000000000000000000D50B0008E8
:1000300015040008000000002D090008610D0008EB
:10004000430200084302000843020008430200087C
:10005000430200084302000843020008430200086C
:10006000430200084302000843020008430200085C
:10007000430200084302000843020008430200084C
:10008000430200084302000843020008430200083C
:10009000430200084302000843020008430200082C
:1000A000430200084302000843020008430200081C
:1000B0004302000843020008F10E00084302000852
:1000C00043020008430200084302000843020008FC
:1000D00043020008E114000843020008430200083C
:1000E00043020008430200084302000843020008DC
:1000F00043020008430200084302000843020008CC
:1001000043020008430200084302000843020008BB
:1001100043020008430200084302000843020008AB
:10012000430200084302000843020008430200089B
:10013000430200084302000843020008430200088B
:10014000430200084302000843020008430200087B
:10015000430200084302000843020008430200086B
:10016000430200084302000843020008430200085B
:10017000430200084302000843020008430200084B
:10018000430200084302000800F002F800F03CF8C7
:100190000AA090E8000C82448344AAF10107DA45E2
:1001A00001D100F031F8AFF2090EBAE80F0013F0F8
:1001B000010F18BFFB1A43F001031847881F000006
:1001C000A81F0000103A24BF78C878C1FAD8520797
:1001D00024BF30C830C144BF04680C6070470000C1
:1001E0000023002400250026103A28BF78C1FBD840
:1001F000520728BF30C148BF0B6070471FB501F0E0
:1002000096FF1FBD10B510BD00F033F81146FFF783
:10021000F5FF01F0FFFA00F051F803B4FFF7F2FF29
:1002200003BC01F093FA00000948804709480047E1
:10023000FEE7FEE7FEE7FEE7FEE7FEE7FEE7FEE796
:10024000FEE7FEE704480549054A064B70470000F3
:10025000650D000889010008E8010020E80700207A
:10026000E8030020E803002070477047704770479C
:100270007047754600F028F8AE46050069465346BB
:1002800020F00700854618B020B5FFF7DBFFBDE87A
:1002900020404FF000064FF000074FF000084FF0ED
:1002A000000B21F00701AC46ACE8C009ACE8C0097E
:1002B000ACE8C009ACE8C0098D4670470446AFF30E
:1002C00000802046FFF7A9FF004870478801002002
:1002D00000BFFEE701460A2900DC09B9002070478B
:1002E0002420214A10700B293CD2DFE801F03B06A4
:1002F0000B10151A1F24292F350005201A4A50719A
:100300000620ECE70920184A50720A20E7E70D2082
:10031000154A50730E20E2E71120134A5074122040
:10032000DDE71520104A50751620D8E719200E4A2F
:1003300050761A20D3E71D200B4A50771E20CEE7B7
:100340002120094A82F821002220C8E72520064AF8
:1003500082F825002620C2E72920034A82F82900D6
:100360002A20BCE70020BAE76C00002011B52DED73
:10037000020B04460A2C00DC04B91EBD0B2C43D230
:10038000DFE804F042060C12181E242A30363C0026
:1003900001221F49684600F03EF835E005221C495D
:1003A000684600F038F82FE009221949684600F045
:1003B00032F829E00D221649684600F02CF823E0B7
:1003C00011221349684600F026F81DE01522104955
:1003D000684600F020F817E019220D49684600F041
:1003E0001AF811E01D220A49684600F014F80BE0E3
:1003F00021220749684600F00EF805E0252204494D
:10040000684600F008F800BF00BF00BFB5E7000075
:100410006C000020704730B503461C788C545D7822
:10042000541C0D559D78941C0D55DD78D41C0D552C
:1004300030BDF0B50A4600210023002400BF3DE096
:10044000012505FA01F3156805EA03049C4234D13D
:1004500005684F000326BE40B543056015794E0080
:10046000B5400668354305601579012D02D0157930
:10047000022D16D185684F000326BE40B543856026
:1004800055794E00B540866835438560456801263C
:100490008E40B5434560456896798E40B6B2354387
:1004A0004560C5684F000326BE40B543C560D57999
:1004B0004E00B540C6683543C560491C1029BFD3FE
:1004C000F0BDF0B5002300244D07ED0E02FA05F350
:1004D000CE1000F1200555F826504E07F70E0F26D6
:1004E000BE40B543CF1000F1200646F82750CE108D
:1004F00000F1200555F8265045EA0304CE1000F11E
:10050000200545F82640F0BD0246002013690B4047
:100510000BB1012000E00020704741837047018348
:10052000704700BFFEE700001CB50121102000F05D
:1005300071FA1520009000208DF8040003208DF83A
:10054000050001208DF8070069460248FFF771FF9A
:100550001CBD00000010024010B5044614B101207B
:10056000224908702148007848B301212048FFF74C
:10057000CBFF48B104211E48FFF7C6FF20B1102170
:100580001B48FFF7C1FFD0B90A2001F001F9002094
:100590001649087001211648FFF7B6FF08B9012077
:1005A00010BD04211248FFF7AFFF08B90220F7E79A
:1005B00010210F48FFF7A8FFA8B90320F0E7012199
:1005C0000B48FFF7A1FF01280DD104210848FFF7D0
:1005D0009BFF012807D110210548FFF795FF01284F
:1005E00001D1024908700020DAE700004E00002027
:1005F000001002401CB50121022000F00BFA4FF45C
:100600000070009001208DF8040000208DF8060095
:1006100003208DF8050001208DF807006946044885
:10062000FFF707FF4FF400710148FFF778FF1CBD8B
:100630000004024000BFFEE71FB50121022000F0C8
:10064000E9F90121082000F0E5F94FF42840029073
:1006500001208DF80C0000208DF80E0003208DF88D
:100660000D0001208DF80F0002A91848FFF7E1FEE8
:100670004FF42060009001208DF8040000208DF8D8
:10068000060003208DF8050001208DF8070069465B
:100690000F48FFF7CEFE4FF400510C48FFF73DFF27
:1006A0004FF400610948FFF738FF4FF40041074855
:1006B000FFF733FF4FF400710548FFF72EFF4FF4AB
:1006C00000610348FFF729FF1FBD0000000402403E
:1006D000000C024000B58BB00121022000F0AAF905
:1006E0000121042000F096F9C020069002208DF828
:1006F0001C0003208DF81D0001208DF81E008DF8D0
:100700001F0006A92A48FFF794FE02220621284866
:10071000FFF7D7FE022207212548FFF7D2FE254822
:1007200000F084FC0020ADF820004FF6FE70099028
:100730000020ADF82800ADF8220008A91D4800F0FF
:100740005DFE00231A4603211A4800F037FD03A876
:1007500000F08CFD0020ADF800000120ADF8040091
:100760000020ADF806000820ADF8080069461148E1
:1007700000F045FD0420ADF800000120ADF80400B4
:100780000020ADF806000820ADF8080069460948C9
:1007900000F035FD0121074800F02AFC0020054942
:1007A000243108600121034800F025FC0BB000BD96
:1007B000000802400004004000B58BB00121082071
:1007C00000F038F90121084600F024F903200690D2
:1007D00002208DF81C0003208DF81D0001208DF8EB
:1007E0001E008DF81F0006A92A48FFF722FE0222EC
:1007F00000212848FFF765FE022201212548FFF766
:1008000060FE254800F012FC0020ADF820004FF6F5
:10081000FE7009900020ADF82800ADF8220008A96C
:100820001D4800F0EBFD00231A4603211A4800F092
:10083000C5FC03A800F01AFD0020ADF8000001205F
:10084000ADF804000020ADF806000820ADF808005F
:100850006946114800F0D3FC0420ADF800000120E7
:10086000ADF804000020ADF806000820ADF808003F
:100870006946094800F0C3FC0121074800F0B8FBB5
:1008800000200549243108600121034800F0B3FB32
:100890000BB000BD00000240000C0040704700009B
:1008A00070B5002100230F22C4781CB3174C2468B4
:1008B00004F4E064C4F5E064C4F30721C1F1040466
:1008C000E3B20A4144789C40E1B284781440214369
:1008D0000C07210E0E4C05786155047804F01F05B5
:1008E0000124AC4005786D11AD0005F1E025C5F897
:1008F000004109E0047804F01F050124AC40054DD7
:100900000678761145F8264070BD00000CED00E039
:1009100000E400E080E100E002490143024A116086
:10092000704700000000FA050CED00E07047000081
:1009300030B58BB005460C460121084600F09AF808
:100940000121084600F066F84FF410600190022083
:100950008DF8080003208DF8090000208DF80A00AA
:1009600001208DF80B0001A92848FFF762FD012244
:1009700008212648FFF7A5FD01220B212348FFF798
:10098000A0FD0995A0B2ADF820000020ADF8280028
:10099000ADF822008DF82A0008A91D4800F02EFDB0
:1009A00001211B4800F018FB6020ADF80C0000206E
:1009B000ADF818004FF48070ADF81C000120ADF8C0
:1009C0000E000020ADF81000ADF81E000820ADF8B4
:1009D0001A000020059003A90D4800F051FC03A95E
:1009E0000B4800F095FC0821094800F087FC08211D
:1009F000074800F0C9FC0121054800F008FB01216F
:100A0000034800F0F8FA0BB030BD000000000240CF
:100A10000000014029B1064A12680243044B1A60E3
:100A200004E0034A12688243014B1A6070470000D9
:100A30003038024029B1064A12680243044B1A605A
:100A400004E0034A12688243014B1A6070470000B9
:100A50004038024029B1064A12680243044B1A602A
:100A600004E0034A12688243014B1A607047000099
:100A70002038024029B1064A12680243044B1A602A
:100A800004E0034A12688243014B1A607047000079
:100A90004438024029B1064A12680243044B1A60E6
:100AA00004E0034A12688243014B1A607047000059
:100AB00024380240F0B5002100220024022500263F
:100AC0000223324F3F6807F00C0121B1042905D001
:100AD000082937D105E02E4F076036E02D4F07601B
:100AE00033E02A4F3F1F3F68C7F38056274F3F1F11
:100AF0003F6807F03F036EB1264FB7FBF3F7DFF80F
:100B00008CC0ACF1040CDCF800C0CCF3881C07FBF3
:100B10000CF40CE01E4FB7FBF3F7DFF870C0ACF13C
:100B2000040CDCF800C0CCF3881C07FB0CF4174F56
:100B30003F1F3F68C7F301477F1C7D00B4FBF5F7FB
:100B4000076002E0124F076000BF00BF0F4F3F6811
:100B500007F0F0010909104F7A5C0768D740476039
:100B60000A4F3F6807F4E051890A0B4F7A5C4768E7
:100B7000D7408760054F3F6807F46041490B064F37
:100B80007A5C4768D740C760F0BD00000838024073
:100B90000024F40040787D015A000020014603291A
:100BA00002D005290ED106E0084A126810B20022D0
:100BB000064B1A6008E0064A126810B20022044B85
:100BC0001A6001E0002000BF00BF7047240400400D
:100BD000240C0040704700000CB5002001900090EC
:100BE0003448006840F480303249086000BF314822
:100BF000006800F4003000900198401C01900098BB
:100C000018B90198B0F5A04FF1D12A48006800F456
:100C1000003010B10120009001E000200090009809
:100C2000012846D123484030006840F080502149D7
:100C3000403108602048006840F440401E49086088
:100C40001C48083000681B490831086008460068E5
:100C500040F4004008600846006840F4A050086076
:100C60001648091F0860081F006840F08070091FBF
:100C7000086000BF0F48006800F000700028F9D03D
:100C800040F205700E4908600A480830006820F0FC
:100C900003000849083108600846006840F0020077
:100CA000086000BF03480830006800F00C00082806
:100CB000F8D10CBD003802400070004019544007C4
:100CC000003C024000B503460A46002A07DA01202C
:100CD0001449086000201449C1F8B40206E000205D
:100CE0001049086001201049C1F8B402104600F014
:100CF000E9FD0E494863002B07DD01200C4908601F
:100D000000200C49C1F8AC0202E00020084908604C
:100D10000120074908310860184600F0D3FD034957
:100D2000086400BDAC8240420080404200000140A7
:100D3000A482414200804142042808D14FF0E021C2
:100D4000096941F004014FF0E022116107E04FF022
:100D5000E021096921F004014FF0E02211617047A0
:100D60007047000010B51548006840F47000134942
:100D700008601348006840F0010011490860002035
:100D80000F49083108600E4800680E4908400C49B8
:100D900008600D48091D0860081F006820F48020C5
:100DA000091F0860002006490C310860FFF714FF96
:100DB0004FF0006001498039086010BD88ED00E007
:100DC00000380240FFFFF6FE10300024F0B50C465C
:100DD000154600210022068C4FF6FE773E40068421
:100DE000018B028C4FF60C7631407E1C06EA03160E
:100DF0002E4331434FF6F576324044F0010632433C
:100E000001830284F0BDF0B50C4615460021002296
:100E10000026078C4FF6EF7C07EA0C070784018B4E
:100E2000028C4FF6FF7707EA041640F6FF47394079
:100E30004FF6FF7707EA033739434FF6FF7707EAA4
:100E4000052739434FF65F773A4046F010073A439B
:100E500001830284F0BDF0B50C4615460021002246
:100E60000026078C4FF6FF6C07EA0C070784818B7E
:100E7000028C4FF6FF7707EA04264FF60C773940CD
:100E80004FF6FF7707EA03172F4339434FF2FF5717
:100E90003A4046F480773A4381830284F0BDF0B54E
:100EA0000C461546002100220026078C4EF6FF7CDA
:100EB00007EA0C070784818B028C4FF6FF7707EA5D
:100EC000043640F6FF4739404FF6FF7707EA05271B
:100ED00039434FF6FF7707EA0337394345F6FF7783
:100EE0003A4046F480573A4381830284F0BD0000C3
:100EF00070B53348008800F00100002859D031480F
:100F00000078401C2F49087008468088401C888063
:100F1000084600781E284CDB0520FFF73FFE00B294
:100F2000294908800846B0F90010002000F028FD8B
:100F30002549486000F0E6FB234841680020FFF7A0
:100F4000C1FE2248006800EE900AF8EE600AB0EE9A
:100F5000600A0120FFF70AFA1B48B0F9000000EE12
:100F6000900AF8EEE00AB0EE600A0220FFF7FEF900
:100F70001548D0ED010AF8EEE00AB0EE600A032051
:100F8000FFF7F4F90320FFF7A5F9054600240BE06D
:100F900000BF0F48008800F040000028F9D00D483D
:100FA000005D0B498880641CAC42F1DB00200549E0
:100FB00008700348008820F001000149088070BDD6
:100FC000100800404600002098000020240C00403B
:100FD000001001406C00002021B1028842F0800224
:100FE000028004E002884FF67F731A400280704747
:100FF000CA430282704721B1028842F00102028096
:1010000004E002884FF6FE731A400280704731B147
:10101000B0F8442042F40042A0F8442005E0B0F8C3
:101020004420C2F30E02A0F84420704710B50446D5
:101030005548844208D101210846FFF72BFD0021C5
:101040000120FFF727FD9DE0B4F1804F08D1012179
:101050000846FFF7FFFC00210120FFF7FBFC91E0B1
:101060004A48844208D101210220FFF7F3FC002105
:101070000220FFF7EFFC85E04548844208D10121BA
:101080000420FFF7E7FC00210420FFF7E3FC79E0F0
:101090004048844208D101210820FFF7DBFC0021F1
:1010A0000820FFF7D7FC6DE03B48844208D10121BE
:1010B0001020FFF7CFFC00211020FFF7CBFC61E0F0
:1010C0003648844208D101212020FFF7C3FC0021CB
:1010D0002020FFF7BFFC55E03148844208D10121B0
:1010E0000220FFF7D7FC00210220FFF7D3FC49E0E4
:1010F0002C48844209D101210804FFF7CBFC0021D0
:101100004FF48030FFF7C6FC3CE02748844209D109
:1011100001214804FFF7BEFC00214FF40030FFF727
:10112000B9FC2FE02148844209D101218804FFF74E
:10113000B1FC00214FF48020FFF7ACFC22E01C48FA
:10114000844208D101214020FFF784FC0021402087
:10115000FFF780FC16E01748844208D10121802067
:10116000FFF778FC00218020FFF774FC0AE01248AA
:10117000844207D101218015FFF76CFC0021A015E6
:10118000FFF768FC10BD00000000014000040040B3
:1011900000080040000C0040001000400014004017
:1011A000000401400040014000440140004801406B
:1011B00000180040001C004000200040F0B50C4624
:1011C00015461E460021002200230189028B038C54
:1011D0004FF6F877394021434FF6FC473A4040F24A
:1011E00001173A434FF6DD773B404FF6FF7707EAAA
:1011F00006172F433B43018102830384F0BD70B582
:1012000005460C46208850B92389A2886188284663
:10121000FFF7DCFDE188284600F0C3F825E02088D0
:1012200004280AD12389A28861882846FFF7EBFDAC
:10123000E188284600F0BEF817E0208808280AD187
:101240002389A28861882846FFF705FEE1882846A1
:1012500000F0BDF809E02389A28861882846FFF7DD
:101260001EFEE188284600F0BBF870BD0021018019
:101270004180012181800021C180018170470000EF
:1012800070B5002400220023058C4FF6FE76354011
:101290000584028C8388048B4FF68F752C40B51E15
:1012A0002C400D882C43751E2A408D892A434D8879
:1012B0002A43104DA84202D00F4DA84213D14FF639
:1012C000F7752A40CD892A434FF6FB752A408D8851
:1012D0002A434FF6FF652B404FF6FF552B400D8AF2
:1012E0002B434D8A2B43838004838D68456302849E
:1012F00070BD000000000140000401400A460021CA
:10130000018B4FF6F77319401143018370470000BA
:1013100070B5002200230024058C4EF6FF76354080
:101320000584038C8488828B48F6FF752A404FF62B
:10133000FF452A400D884FF6FF7606EA05252A4329
:101340004DF6FF752B408D8906EA05352B434D88F8
:1013500006EA05352B430A4DA84202D0094DA842A2
:1013600008D14BF6FF752C400D8A4FF6FF7606EA42
:1013700085152C43848082838D680564038470BD49
:1013800000000140000401400A460021818B4FF219
:10139000FF7319404FF6FF7303EA02231943818359
:1013A0007047028B4FF6F3731A400283028B0A4395
:1013B00002837047028B4FF2FF331A400283028B85
:1013C0004FF6FF7303EA01231A4302837047828BAF
:1013D0004FF6F3731A408283828B0A4382837047ED
:1013E000828B4FF2FF331A408283828B4FF6FF735A
:1013F00003EA01231A438283704700000022028817
:10140000184B98420ED0184B98420BD0B0F1804F39
:1014100008D0164B984205D0154B984202D0154B78
:10142000984204D14FF68F731A404B881A43124BDF
:10143000984207D0114B984204D04FF6FF431A4010
:101440000B891A4302804B68C3620B880385054BE6
:10145000984202D0044B984201D18B7A0386012333
:1014600083827047000001400004014000040040F6
:1014700000080040000C0040001000400014004034
:1014800038B505460C461448006840F0040012497F
:10149000086012480560001F04801048203800884A
:1014A00040F001000D49203908800C482C38008894
:1014B00040F0010009492C3908801E208DF80000F9
:1014C00001208DF801008DF802008DF803006846B8
:1014D000FFF7E6F938BD0000403802402C08004014
:1014E00010B540F225511D4800F04AF810B31B48D2
:1014F00000F000F9C4B21A48008800F40040C8B9EE
:101500001748008800F4804060B10A2C03D0002006
:101510001349088020E01248008840F40040104938
:10152000088019E00D2C06D10D48008840F4804059
:101530000B49088010E00A480088C0F30D000949F3
:101540000C5407480088401C05490880084600885C
:10155000C72801DD0020088010BD000000100140F8
:1015600058000020C000002021B1828942F40052BE
:10157000828104E082894DF6FF731A4082817047B0
:1015800070B50246002400230025002040F66A16AC
:10159000B14200D100BFC1F3421501F01F03012683
:1015A00006FA03F3012D02D19689334006E0022D9D
:1015B00002D1168A334001E0968A33400C1201268C
:1015C00006FA04F41688344013B10CB1012000E08F
:1015D000002070BDF0B50346002400260025002041
:1015E00040F66A17B94200D100BF1846C1F3421451
:1015F00001F01F06012707FA06F5012C01D10C3076
:1016000004E0022C01D1103000E014301AB1076858
:101610002F43076002E00768AF430760F0BD00009A
:101620002DE9FF4705460E460024A14600BFA0460F
:10163000B08900B100BF2C8A24F44054F0880443E0
:101640002C82AC8941F20C608443B0883189084314
:10165000718908430443AC81AC8A24F44074B08996
:101660000443AC826846FFF725FA2048854202D041
:101670001F48854202D1DDF80C9001E0DDF80890AA
:10168000A88900F4004040B109EBC90000EB091043
:1016900031684900B0FBF1F707E009EBC90000EB46
:1016A000091031688900B0FBF1F76420B7FBF0F056
:1016B00004012009642101FB1078A88900F400408E
:1016C00040B1322000EBC800B0FBF1F000F00700A1
:1016D000044308E0322000EB08106421B0FBF1F075
:1016E00000F00F0004432C81BDE8FF87001001408B
:1016F0000014014001468888C0F30800704700BF0D
:10170000FEE7000041F6F4200E494968424291424A
:1017100002DA41420B4A51600A494968814201DDBF
:1017200008494860084949684242914202DA414208
:10173000054A516004494968814201DD0249486017
:1017400070470000AC00002098000020014600BF58
:101750007047000010B504466FF00400FFF7ECFA84
:10176000E11704EB5171C1F3C701074A117010462C
:10177000007800EB4001C1EBC0104FF6FF7101EAA9
:10178000C0000249088010BD500000205200002017
:1017900070B504464FF4077094FBF0F0C6B24FF4F6
:1017A000077094FBF0F100FB114085B205E04FF4A7
:1017B000077000F009F8701EC6B2002EF7D115B1FF
:1017C000284600F001F870BD0146114A12884A43CC
:1017D0004FF0E0235A6100229A611A46126942F0E2
:1017E00001021A6100BF4FF0E022106900F001020F
:1017F0001AB100F48032002AF5D04FF0E0221269CD
:1018000022F001024FF0E0231A6100229A61704732
:10181000520000204FF4A060FFF77EF8A820FFF7E9
:1018200099FF4FF47A3000F055F8FEF753FFFEF7BA
:10183000C3FFFEF701FF002141F61F40FFF778F8D4
:1018400053216320FFF71CFEFEF76EFEFEF7D2FE6B
:1018500001201A49086042F210701949C8602CE052
:101860000020FEF779FE0446CCB1012C04D0022CF6
:1018700006D0032C12D10AE00020104908600DE0C8
:101880000F48C06800F5FA600D49C86006E00C48D2
:10189000C068A0F5FA600A49C86000BF09E00748BF
:1018A0001838006808B9012000E000200349183901
:1018B00008604FF4FA70FFF76BFFD1E7BC8240423B
:1018C000980000200146002901DA484200E008465D
:1018D0007047000010B588B0044601210846FFF7A4
:1018E00099F801211020FFF7C5F8072209212248A5
:1018F000FEF7E7FD07220A211F48FEF7E2FD4FF43D
:10190000C060069002208DF81C008DF81D0000209C
:101910008DF81E0001208DF81F0006A91648FEF75D
:1019200088FD02940020ADF80C00ADF80E00ADF873
:101930001000ADF814000C20ADF8120002A90F48F9
:10194000FFF76EFE01210D48FFF70EFE012240F267
:1019500025510A48FFF73EFE25208DF8040003209C
:101960008DF805008DF8060001208DF8070001A80C
:10197000FEF796FF08B010BD0000024000100140C5
:1019800070B52DED0A8B04460D469FED430AB0EE6F
:10199000408AB1EE080AF0EE408A6019143000EE79
:1019A000100AB8EEC00A3D4880ED000A3C480068C5
:1019B00000F04CFB41EC1A0B9FED3A0B53EC102B53
:1019C00000F05CF941EC190B00F07EF83449086036
:1019D0003248006800F03AFB41EC1C0B9FED330BE2
:1019E00053EC102B00F04AF941EC1A0B2C4800681C
:1019F00000F02CFB41EC1B0B53EC1A2B00F096F87B
:101A000041EC190B00F060F825490860294890ED79
:101A1000000A0846D0ED000A30EE200A254880ED85
:101A2000000A90ED000A2448D0ED000A30EE600A6A
:101A3000204880ED000A90ED000ADFED200AB4EEA8
:101A4000E00AF1EE10FA03DD9FED1C0A80ED000ABA
:101A5000184890ED000ADFED1A0AB4EEE00AF1EE44
:101A600010FA03D29FED160A80ED000A0C4890EDA3
:101A7000000A20EE080A0F48D0ED000A00EEA80A7E
:101A8000104880ED000A90ED000ABDEEC00A10EE8D
:101A9000100ABDEC0A8B70BD00008C4218000020BB
:101AA0001C0000209A9999999999E93F9A999999D6
:101AB0009999C93F240000202000002000401C46C6
:101AC00000401CC61400002021F00042A2F1605228
:101AD000B2F5801F01F0004328BFD2F17F6C0BD913
:101AE0005FEA001C43EAC20242EB507018BF704725
:101AF00028BF20F001007047B2F5801FBCBF184618
:101B000070474FEA410C1CF5001F02D2084600F056
:101B100013BB70B500F05CF900000089FFF7F6BF59
:101B20004FF00040A0F580007047000010B591EA2A
:101B3000030F48BF83F0004300F1A681841A71EBC4
:101B4000030C05D2121943EB0C03001B61EB0C01D3
:101B5000DFF824E14FEA1154A4EB135C1EEA430FB3
:101B600018BF9EEA445F73D023EA0E03DCF1200E17
:101B700021EA045143F4801332D322FA0CFE10EB15
:101B80000E0023FA0CFE41EB0E01CCF1200E03FAFD
:101B90000EFE10EB0E0051F10001B1F5801FCCF1EB
:101BA000200E32D201EB045112FA0EF2BDE81040C1
:101BB00058BF7047401C38BF5FEA420218BF7047E9
:101BC000002814BF20F0010041F100014FEA410359
:101BD00013F5001F38BF7047A1F1C04100F046B9AE
:101BE000012A43EB0302ACF1200CDCF11F0E32BFE3
:101BF0004FF0000E23FA0CF310EB030041EB0451FD
:101C0000B4EB115FD0D0A1EB045101F5801149086C
:101C10005FEA300001EB04510ED350F1000038BFF1
:101C200012FA0EFE08D1BDE81040C9E7401C38BFCB
:101C30005FEA4202CAD1C3E7BDE810404FEA410360
:101C400013F5001F38BF7047A1F1C04100F00EB975
:101C50009EEA445F08D011EA5E0FBDE8104004BF61
:101C600001F0004100207047BDE8104070B500F061
:101C7000AFF800BF64FBBE3E0000E0FFDFF848C1E4
:101C800070B51CEA111E1EBF1CEA13159EEA0C0F4C
:101C900095EA0C0F00F06F8081EA030423EA4C13ED
:101CA0004EEAD47E21EA4C1141F4801143F48013B2
:101CB000AE44A1FB024CA0FB0365AEF17F7E36195A
:101CC00055EB0C05A1FB034C4CF10003A0FB021CDF
:101CD00016EB0C06654153F10003094218BF46F0AC
:101CE000010613F4007F0BD14FEA03314FEA0530B0
:101CF000340341EA155140EA16506FF003020AE03E
:101D00004FEAC3214FEAC520F40241EA555140EAA7
:101D100056506FF0020202EB2E4201EB025585EAAB
:101D2000CE710AD05FEA440C18BF24F0004450F191
:101D3000000041F1000120EAD47040F2FE7C6245CF
:101D400000D270BDA84214BF4FF080444FF0404411
:101D5000002E08BF0024BEF1806FA8BFA1F1C041D2
:101D6000BDE8704080F282804FF0000001F1C04178
:101D700001F0004170479EEA0C0F0CEA131518BFE2
:101D800095EA0C0F06D04FF0000081EA030E0EF02A
:101D9000004170BD00F01CF88900013E00F007B85A
:101DA00000F009B84FEA430C5FEA5C5C08D081EAB6
:101DB000030100F05BB84FEA410C5FEA5C5CF6D1CE
:101DC0004FF00000014970470000FF070000F87F56
:101DD0000EF1020E2EF0030E5EF8046B364205D4AF
:101DE000012A43EB030515F5001F12D8012841EB2A
:101DF000010C1CF5001F0CD80ED14FEAD17C15F553
:101E0000001F0CEB4C0C0CF1020C08BF4CEBD37C0C
:101E100004E04FF0080C01E04FEAD37C0CEB4C05DA
:101E200026FA05F606F00706B6F1040C06D20EEB0C
:101E3000860CBDE870404CF0010C6047DFE80CF008
:101E4000090B02024FF000414FF00000A1F5002104
:101E500070BD19461046012851EB010418BFD4F596
:101E6000001484BF002001F0004170BD0808A0F5F7
:101E700000114FEA3101704710B591EA030F48BFD6
:101E800083F000433FF55AAE841A71EB030C07D27E
:101E900012198CF0004C43EB0C03001B61EB0C019E
:101EA000DFF8A4E14FEA1154A4EB135C1EEA430FE0
:101EB00018BF9EEA445F00F0B08023EA6E035242EE
:101EC00021EA0451C3EB6E0338BF5B1EDCF1200E28
:101ED00025D322FA0CFE10EB0E0043FA0CFE41EB68
:101EE0000E01CCF1200E03FA0EFE10EB0E0051F1A4
:101EF0000001CCF1200E29D412FA0EF201EB0451AC
:101F0000BDE8104058BF7047401C1CBFB2F1004FE5
:101F1000704700280CBF491C20F00100704712EBED
:101F2000020E43EB030218BF4FF0010E4EEA4202CD
:101F3000ACF1200CDCF11E0E54D943FA0CFE10EB70
:101F40000E0051F1FF31CCF11E0ED5D50EF1010E70
:101F500012FA0EFE404141EB010101EB445C5FEAE5
:101F60005C5C10D910EBDE7001EB045138BFBEF1A0
:101F7000004FBDE8104018BF704700280CBF491C37
:101F800020F00100704730D24FEAD42C11F5001137
:101F900024F400641BD0B1FA81F20B3AA41AA41EF7
:101FA000D2F12003914030FA03F31943904001EB42
:101FB000CC71002C01EB0451BDE81040A8BF704764
:101FC00001F1C0414FF0000001F000417047B0FA4C
:101FD00080F310FA03F100D110BDE41A173C480554
:101FE000C90AE4E701EB045110BD491001EB0451AB
:101FF000BDE810404FEA300002E04FF000017047AA
:102000004A0008BF0042F8D0B2F5001F28BF704751
:1020100001F000414FF0000070479EEA445F07D096
:1020200011EA5E0FBDE8104004BF00210020704798
:10203000BDE8104070B5FFF7CBFE00BF40DFF63EB5
:1020400083F00041104670470000E0FF43004FEA74
:10205000D30C4FEA3C0C43401FBF40070CF16051CA
:1020600013F0FE4F70471CF0006F03D100200CF0FE
:10207000004170470CF0004343EA507010B540EA4D
:10208000CC0000F00EF800BF000000924FEA000103
:10209000FFF7ECBE4FF000414FF00000A1F500212A
:1020A00070470EF1020E2EF0030E5EF8044B244230
:1020B00004D44FEA4102B2F17F4F11D84FEA4003F6
:1020C000B3F17F4F0CD80ED14FEAD07CB2F17F4FE5
:1020D0000CEB4C0C0CF1020C08BF4CEBD17C04E077
:1020E0004FF0080C01E04FEAD17C0CEB4C0324FAD2
:1020F00003F404F00704B4F1040C06D20EEB840CD4
:10210000BDE810404CF0010C6047DFE80CF0070818
:1021100002024FF00040A0F5800010BD08464200CA
:1021200018BFD2F1807288BF00F0004010BD4FF0A0
:102130004070E1EE100A7047FF2141EAD050C0051F
:102140007047000064210008000000206C000000BF
:10215000C4010008D02100086C0000207C070000AA
:10216000E001000800000000000000000000000086
:10217000000000000000000000000000000000005F
:10218000000000000000000000000000000000004F
:10219000000000000000000000000000000000003F
:1021A000000000000000000000000000000000002F
:1021B000000001000000000000000000000000001E
:1021C00000000102030401020304060708090000DD
:040000050800018965
:00000001FF
